:10000000B711002093810180371200001302028093
:10001000B702012013810200130582AE7310553020
:1000200073102034EF008036370400001304043CC2
:100030000325040013044400E70005006FF05FFF90
:0C004000EF00C0286F0040006F000000BF
:10004C00EF004019EF008000678000009382018070
:10005C0003A4020083A4420003A98200B379940094
:10006C0093D93901337A24011385090093051000C3
:10007C0013060000EF00C0031304050013050A006B
:10008C0093051000EF00800B930405009399490130
:10009C0093D93901131AEA00135ADA00B38999007B
:1000AC00330A8A009399390133854901678000002E
:1000BC001301C1FE2320810023229100232421015E
:1000CC002326310123284101930210001393C2000F
:1000DC0093937200139E8200939E5200139F3200E2
:1000EC003373A3001353C300B3F3A30093D3730070
:1000FC00337EAE00135E8E00B3FEAE0093DE5E0068
:10010C00337FAF00135F3F0033447300B374DE01E1
:10011C003379BF0033459400334525013345A600A0
:10012C000324010083244100032981008329C10099
:10013C00032A010113014101678000001301C1FE74
:10014C002320810023229100232421012326310125
:10015C002328410193021000139322019393720000
:10016C00139EC200939EA200139F8200939F3200A5
:10017C003373A30013532301B3F3A30093D373007E
:10018C00337EAE00135ECE00B3FEAE0093DEAE0047
:10019C00337FAF00135F8F00B3FFAF0093DF3F00DF
:1001AC0033447300B374DE013379FF01334594009B
:1001BC00334525013345B600032401008324410057
:1001CC00032981008329C100032A01011301410184
:1001DC00678000001301C1FF2320810093820180FE
:1001EC0003D5C20083D5E20003D6020183D62201D7
:1001FC0003D7420183D7620103D8820183D8A201BD
:10020C003345E500B3C5F50033460601B3C6160108
:10021C0093C4F5FF33799500B349D60033473901C0
:10022C0033EA9600B34A4501B3475601B3CBC50038
:10023C0033FC5901B3C88B01B36C770133C89A01F5
:10024C001305070093850700130608009386080022
:10025C00B7820000378300001303F3FF33F455001B
:10026C00B3F465001354F40093941400B305940094
:10027C00B7F20000371300001303F3FF337456007A
:10028C00B37466001354C400939444003306940072
:10029C00B7E20000372300001303F3FF33F45600DA
:1002AC00B3F466001354D40093943400B306940052
:1002BC0013000000032401001301410067800000BB
:1002CC00130101FF23261100EFF09FD71305000047
:0C02DC008320C1001301010167800000B5
:1002E800130101FC23201100232251002324610063
:1002F800232671002328A100232AB100232CC10042
:10030800232ED1002320E1022322F102232401031A
:10031800232611032328C103232AD103232CE10315
:10032800232EF10373252034F3251034130382B8E8
:10033800E700030073101534832001008322410075
:10034800032381008323C100032501018325410183
:10035800032681018326C101032701028327410265
:10036800032881028328C102032E0103832E41033F
:10037800032F8103832FC10313010104730020306D
:040388006F00000002
:04038C006780000086
:100390000325040083254400032684001304C400BD
:1003A000630E0600838605002300D50013051500A3
:1003B000938515001306F6FFE31606FE678000001E
:1003C0009003000000000020D40300001C00000087
:0403D00040000000E9
:1003D400785634120000F8FFFFFF07007766554493
:0C03E40033221100FFEEDDCCBBAA99888B
:00000001FF
