:10000000B711002093810180371200001302028093
:10001000B7020120138102001305429F731055306F
:1000200073102034EF004027370400001304C42C61
:100030000325040013044400E70005006FF05FFF90
:0C004000EF0080196F0040006F0000000E
:10004C009382018003A4020083A4420003A98200CE
:10005C00B379940093D93901337A240113850900BB
:10006C009305100013060000EF00000413040500B4
:10007C0013050A0093051000EF00C00B9304050054
:10008C009399490193D93901131AEA00135ADA00EA
:10009C00B3899900330A8A00939939013385490150
:1000AC0013000000678000001301C1FE23208100B3
:1000BC0023229100232421012326310123284101ED
:1000CC00930210001393C20093937200139E82004C
:1000DC00939E5200139F32003373A3001353C3003B
:1000EC00B3F3A30093D37300337EAE00135E8E0084
:1000FC00B3FEAE0093DE5E00337FAF00135F3F00B4
:10010C0033447300B374DE013379BF00334594007C
:10011C00334525013345A600032401008324410007
:10012C00032981008329C100032A01011301410124
:10013C00678000001301C1FE23208100232291005F
:10014C00232421012326310123284101930210008D
:10015C001393220193937200139EC200939EA200EC
:10016C00139F8200939F32003373A3001353230118
:10017C00B3F3A30093D37300337EAE00135ECE00B3
:10018C00B3FEAE0093DEAE00337FAF00135F8F0083
:10019C00B3FFAF0093DF3F0033447300B374DE0151
:1001AC003379FF0133459400334525013345B600BF
:1001BC000324010083244100032981008329C10009
:0C01CC00032A01011301410167800000BB
:1001D800130101FF23261100EFF0DFE613050000ED
:0C01E8008320C1001301010167800000AA
:1001F400130101FC23201100232251002324610058
:10020400232671002328A100232AB100232CC10036
:10021400232ED1002320E1022322F102232401030F
:10022400232611032328C103232AD103232CE1030A
:10023400232EF10373252034F3251034130342A92C
:10024400E70003007310153483200100832241006A
:10025400032381008323C100032501018325410178
:10026400032681018326C10103270102832741025A
:10027400032881028328C102032E0103832E410334
:10028400032F8103832FC103130101047300203062
:040294006F000000F7
:04029800678000007B
:10029C000325040083254400032684001304C400B2
:1002AC00630E0600838605002300D5001305150098
:1002BC00938515001306F6FFE31606FE6780000013
:1002CC009C02000000000020E00200000C00000076
:0402DC0040000000DE
:0C02E000785634120000F8FFFFFF070002
:00000001FF
